{
  "transactions": [
    {
      "hash": "0x146784af0bdab219fc7717aeaceaf4ba632348c55a8b22fcc0c3869201d8e1bd",
      "transactionType": "CREATE",
      "contractName": "HumanDropToken",
      "contractAddress": "0x5ac074194665d204e46fce13249b924191c70c9a",
      "function": null,
      "arguments": [
        "1000000000000000000000000"
      ],
      "transaction": {
        "from": "0xb2f129b0d6558f39702fb44fa9050e889bdd3aad",
        "gas": "0xad4f9",
        "value": "0x0",
        "input": "0x608060405234801562000010575f80fd5b5060405162000ad238038062000ad2833981016040819052620000339162000222565b6040518060400160405280600f81526020016e243ab6b0b7223937b8102a37b5b2b760891b8152506040518060400160405280600381526020016212111560ea1b8152508160039081620000889190620002d8565b506004620000978282620002d8565b505050620000ac3382620000b360201b60201c565b50620003ca565b6001600160a01b038216620000e25760405163ec442f0560e01b81525f60048201526024015b60405180910390fd5b620000ef5f8383620000f3565b5050565b6001600160a01b03831662000121578060025f828254620001159190620003a4565b90915550620001939050565b6001600160a01b0383165f9081526020819052604090205481811015620001755760405163391434e360e21b81526001600160a01b03851660048201526024810182905260448101839052606401620000d9565b6001600160a01b0384165f9081526020819052604090209082900390555b6001600160a01b038216620001b157600280548290039055620001cf565b6001600160a01b0382165f9081526020819052604090208054820190555b816001600160a01b0316836001600160a01b03167fddf252ad1be2c89b69c2b068fc378daa952ba7f163c4a11628f55a4df523b3ef836040516200021591815260200190565b60405180910390a3505050565b5f6020828403121562000233575f80fd5b5051919050565b634e487b7160e01b5f52604160045260245ffd5b600181811c908216806200026357607f821691505b6020821081036200028257634e487b7160e01b5f52602260045260245ffd5b50919050565b601f821115620002d357805f5260205f20601f840160051c81016020851015620002af5750805b601f840160051c820191505b81811015620002d0575f8155600101620002bb565b50505b505050565b81516001600160401b03811115620002f457620002f46200023a565b6200030c816200030584546200024e565b8462000288565b602080601f83116001811462000342575f84156200032a5750858301515b5f19600386901b1c1916600185901b1785556200039c565b5f85815260208120601f198616915b82811015620003725788860151825594840194600190910190840162000351565b50858210156200039057878501515f19600388901b60f8161c191681555b505060018460011b0185555b505050505050565b80820180821115620003c457634e487b7160e01b5f52601160045260245ffd5b92915050565b6106fa80620003d85f395ff3fe608060405234801561000f575f80fd5b5060043610610090575f3560e01c8063313ce56711610063578063313ce567146100fa57806370a082311461010957806395d89b4114610131578063a9059cbb14610139578063dd62ed3e1461014c575f80fd5b806306fdde0314610094578063095ea7b3146100b257806318160ddd146100d557806323b872dd146100e7575b5f80fd5b61009c610184565b6040516100a99190610554565b60405180910390f35b6100c56100c03660046105bb565b610214565b60405190151581526020016100a9565b6002545b6040519081526020016100a9565b6100c56100f53660046105e3565b61022d565b604051601281526020016100a9565b6100d961011736600461061c565b6001600160a01b03165f9081526020819052604090205490565b61009c610250565b6100c56101473660046105bb565b61025f565b6100d961015a36600461063c565b6001600160a01b039182165f90815260016020908152604080832093909416825291909152205490565b6060600380546101939061066d565b80601f01602080910402602001604051908101604052809291908181526020018280546101bf9061066d565b801561020a5780601f106101e15761010080835404028352916020019161020a565b820191905f5260205f20905b8154815290600101906020018083116101ed57829003601f168201915b5050505050905090565b5f3361022181858561026c565b60019150505b92915050565b5f3361023a85828561027e565b6102458585856102ff565b506001949350505050565b6060600480546101939061066d565b5f336102218185856102ff565b610279838383600161035c565b505050565b6001600160a01b038381165f908152600160209081526040808320938616835292905220545f198110156102f957818110156102eb57604051637dc7a0d960e11b81526001600160a01b038416600482015260248101829052604481018390526064015b60405180910390fd5b6102f984848484035f61035c565b50505050565b6001600160a01b03831661032857604051634b637e8f60e11b81525f60048201526024016102e2565b6001600160a01b0382166103515760405163ec442f0560e01b81525f60048201526024016102e2565b61027983838361042e565b6001600160a01b0384166103855760405163e602df0560e01b81525f60048201526024016102e2565b6001600160a01b0383166103ae57604051634a1406b160e11b81525f60048201526024016102e2565b6001600160a01b038085165f90815260016020908152604080832093871683529290522082905580156102f957826001600160a01b0316846001600160a01b03167f8c5be1e5ebec7d5bd14f71427d1e84f3dd0314c0f7b2291e5b200ac8c7c3b9258460405161042091815260200190565b60405180910390a350505050565b6001600160a01b038316610458578060025f82825461044d91906106a5565b909155506104c89050565b6001600160a01b0383165f90815260208190526040902054818110156104aa5760405163391434e360e21b81526001600160a01b038516600482015260248101829052604481018390526064016102e2565b6001600160a01b0384165f9081526020819052604090209082900390555b6001600160a01b0382166104e457600280548290039055610502565b6001600160a01b0382165f9081526020819052604090208054820190555b816001600160a01b0316836001600160a01b03167fddf252ad1be2c89b69c2b068fc378daa952ba7f163c4a11628f55a4df523b3ef8360405161054791815260200190565b60405180910390a3505050565b5f602080835283518060208501525f5b8181101561058057858101830151858201604001528201610564565b505f604082860101526040601f19601f8301168501019250505092915050565b80356001600160a01b03811681146105b6575f80fd5b919050565b5f80604083850312156105cc575f80fd5b6105d5836105a0565b946020939093013593505050565b5f805f606084860312156105f5575f80fd5b6105fe846105a0565b925061060c602085016105a0565b9150604084013590509250925092565b5f6020828403121561062c575f80fd5b610635826105a0565b9392505050565b5f806040838503121561064d575f80fd5b610656836105a0565b9150610664602084016105a0565b90509250929050565b600181811c9082168061068157607f821691505b60208210810361069f57634e487b7160e01b5f52602260045260245ffd5b50919050565b8082018082111561022757634e487b7160e01b5f52601160045260245ffdfea264697066735822122087ed78cc7d3c52e3e969ec8bd0f7e1d86917cdf9984d881dc5b89b3ad2ab914c64736f6c6343000818003300000000000000000000000000000000000000000000d3c21bcecceda1000000",
        "nonce": "0x7",
        "chainId": "0x3b91f6ae"
      },
      "additionalContracts": [],
      "isFixedGasLimit": false
    },
    {
      "hash": "0xfa0cfa5a07d9166b4eeeca38baa0df648573e21c868fd84ad458f1a79b4a465a",
      "transactionType": "CREATE",
      "contractName": "WorldIDVerifier",
      "contractAddress": "0x0af9eb4c0077ebbdce6417eb8cb6da4a53d0e238",
      "function": null,
      "arguments": null,
      "transaction": {
        "from": "0xb2f129b0d6558f39702fb44fa9050e889bdd3aad",
        "gas": "0x76026",
        "value": "0x0",
        "input": "0x608060405234801561000f575f80fd5b50338061003557604051631e4fbdf760e01b81525f600482015260240160405180910390fd5b61003e81610044565b50610093565b5f80546001600160a01b038381166001600160a01b0319831681178455604051919092169283917f8be0079c531659141344cd1fd0a4f28419497f9722a3daafe3b4186f6b6457e09190a35050565b61054a806100a05f395ff3fe608060405234801561000f575f80fd5b5060043610610090575f3560e01c8063715018a611610063578063715018a61461017b5780638da5cb5b14610183578063afaf2b1a1461019d578063b90b0a10146101bf578063f2fde38b14610211575f80fd5b806313e7c9d814610094578063558a7297146100cb57806358937cc8146100e05780635e0f5e5114610168575b5f80fd5b6100b66100a236600461047c565b60026020525f908152604090205460ff1681565b60405190151581526020015b60405180910390f35b6100de6100d936600461049c565b610224565b005b6101416100ee3660046104d5565b60408051606080820183525f808352602080840182905292840181905293845260018083529383902083519182018452805460ff8082161515845261010090910416928201929092529201549082015290565b6040805182511515815260208084015160ff169082015291810151908201526060016100c2565b6100de6101763660046104ec565b61028b565b6100de610391565b5f546040516001600160a01b0390911681526020016100c2565b6100b66101ab3660046104d5565b5f9081526001602052604090205460ff1690565b6101f26101cd3660046104d5565b600160208190525f9182526040909120805491015460ff808316926101009004169083565b60408051931515845260ff9092166020840152908201526060016100c2565b6100de61021f36600461047c565b6103a4565b61022c6103e6565b6001600160a01b0382165f81815260026020908152604091829020805460ff191685151590811790915591519182527f966c160e1c4dbc7df8d69af4ace01e9297c3cf016397b7914971f2fbfa32672d91015b60405180910390a25050565b335f9081526002602052604090205460ff161580156102b457505f546001600160a01b03163314155b156102d257604051631f0853c160e21b815260040160405180910390fd5b5f8281526001602052604090205460ff161561030157604051630231faf760e31b815260040160405180910390fd5b60408051606081018252600180825260ff8481166020808501828152428688018181525f8b815287855289902097518854935161ffff1990941690151561ff00191617610100939096169290920294909417865551949093019390935583519283529082015283917f49c3f150dcbb8aa56dcae3398f7fc420f9f1fe840c9f9e659f58b9eeb87f4bbb910161027f565b6103996103e6565b6103a25f610412565b565b6103ac6103e6565b6001600160a01b0381166103da57604051631e4fbdf760e01b81525f60048201526024015b60405180910390fd5b6103e381610412565b50565b5f546001600160a01b031633146103a25760405163118cdaa760e01b81523360048201526024016103d1565b5f80546001600160a01b038381166001600160a01b0319831681178455604051919092169283917f8be0079c531659141344cd1fd0a4f28419497f9722a3daafe3b4186f6b6457e09190a35050565b80356001600160a01b0381168114610477575f80fd5b919050565b5f6020828403121561048c575f80fd5b61049582610461565b9392505050565b5f80604083850312156104ad575f80fd5b6104b683610461565b9150602083013580151581146104ca575f80fd5b809150509250929050565b5f602082840312156104e5575f80fd5b5035919050565b5f80604083850312156104fd575f80fd5b82359150602083013560ff811681146104ca575f80fdfea264697066735822122054214c844af9f917721d21e665dfd209919aac612ca67ff08ebc7730f082db6864736f6c63430008180033",
        "nonce": "0x8",
        "chainId": "0x3b91f6ae"
      },
      "additionalContracts": [],
      "isFixedGasLimit": false
    },
    {
      "hash": "0xdcb7e2c92340a84551e8e1e3728af07f5bd04fdedb6c1cdafff0c65398c25e73",
      "transactionType": "CALL",
      "contractName": "WorldIDVerifier",
      "contractAddress": "0x0af9eb4c0077ebbdce6417eb8cb6da4a53d0e238",
      "function": "setOperator(address,bool)",
      "arguments": [
        "0xB2F129b0D6558f39702Fb44fa9050E889bdd3AAd",
        "true"
      ],
      "transaction": {
        "from": "0xb2f129b0d6558f39702fb44fa9050e889bdd3aad",
        "to": "0x0af9eb4c0077ebbdce6417eb8cb6da4a53d0e238",
        "gas": "0x101d7",
        "value": "0x0",
        "input": "0x558a7297000000000000000000000000b2f129b0d6558f39702fb44fa9050e889bdd3aad0000000000000000000000000000000000000000000000000000000000000001",
        "nonce": "0x9",
        "chainId": "0x3b91f6ae"
      },
      "additionalContracts": [],
      "isFixedGasLimit": false
    },
    {
      "hash": "0x0501e4f8b21d51087e8adbcd217f94f83ea93f148fa5621d831dccebb622673b",
      "transactionType": "CREATE",
      "contractName": "HumanDrop",
      "contractAddress": "0xceb84dd00cb5492b70d8c37d96701d36b72e7c70",
      "function": null,
      "arguments": null,
      "transaction": {
        "from": "0xb2f129b0d6558f39702fb44fa9050e889bdd3aad",
        "gas": "0xe9360",
        "value": "0x0",
        "input": "0x608060405234801561000f575f80fd5b50338061003557604051631e4fbdf760e01b81525f600482015260240160405180910390fd5b61003e81610044565b50610093565b5f80546001600160a01b038381166001600160a01b0319831681178455604051919092169283917f8be0079c531659141344cd1fd0a4f28419497f9722a3daafe3b4186f6b6457e09190a35050565b610bd8806100a05f395ff3fe608060405234801561000f575f80fd5b50600436106100cb575f3560e01c80638da5cb5b11610088578063af1665cb11610063578063af1665cb146102dd578063aff38dc8146102f0578063daa8932314610307578063f2fde38b1461031a575f80fd5b80638da5cb5b146102695780639fc704bb14610283578063a54ab457146102b0575f80fd5b8063052dd94e146100cf578063101256811461015957806313e7c9d81461016e578063558a7297146101a057806360db5082146101b3578063715018a614610261575b5f80fd5b6100e26100dd366004610a0c565b61032d565b60405161015091905f6101008201905060018060a01b038084511683526020840151602084015260408401516040840152606084015160608401526080840151608084015260a084015160a08401528060c08501511660c08401525060e0830151151560e083015292915050565b60405180910390f35b61016c610167366004610a3e565b610403565b005b61019061017c366004610a88565b60046020525f908152604090205460ff1681565b6040519015158152602001610150565b61016c6101ae366004610ab7565b610661565b6102146101c1366004610a0c565b600260208190525f918252604090912080546001820154928201546003830154600484015460058501546006909501546001600160a01b039485169695939492939192811690600160a01b900460ff1688565b604080516001600160a01b03998a16815260208101989098528701959095526060860193909352608085019190915260a084015290921660c082015290151560e082015261010001610150565b61016c6106c7565b5f546040516001600160a01b039091168152602001610150565b610190610291366004610ae8565b5f91825260036020908152604080842092845291905290205460ff1690565b6101906102be366004610ae8565b600360209081525f928352604080842090915290825290205460ff1681565b61016c6102eb366004610b08565b6106da565b6102f960015481565b604051908152602001610150565b6102f9610315366004610b29565b6107a7565b61016c610328366004610a88565b6108b8565b6103816040518061010001604052805f6001600160a01b031681526020015f81526020015f81526020015f81526020015f81526020015f81526020015f6001600160a01b031681526020015f151581525090565b505f9081526002602081815260409283902083516101008101855281546001600160a01b03908116825260018301549382019390935292810154938301939093526003830154606083015260048301546080830152600583015460a083015260069092015491821660c0820152600160a01b90910460ff16151560e082015290565b335f9081526004602052604090205460ff1615801561042c57505f546001600160a01b03163314155b1561044a57604051631f0853c160e21b815260040160405180910390fd5b5f8481526002602052604090206006810154600160a01b900460ff1661048357604051631e232a8760e31b815260040160405180910390fd5b80600501544211156104a857604051635228cdbf60e01b815260040160405180910390fd5b5f85815260036020908152604080832087845290915290205460ff16156104e257604051630c8d9eab60e31b815260040160405180910390fd5b60018260ff1610806104f7575060028260ff16115b156105155760405163d1459f7960e01b815260040160405180910390fd5b5f8581526003602081815260408084208885529091528220805460ff19166001179055820180549161054683610b67565b91905055505f8260ff16600214610561578160020154610567565b81600101545b82546040516370a0823160e01b815230600482015291925082916001600160a01b03909116906370a0823190602401602060405180830381865afa1580156105b1573d5f803e3d5ffd5b505050506040513d601f19601f820116820180604052508101906105d59190610b8b565b10156105f457604051631e9acf1760e31b815260040160405180910390fd5b815461060a906001600160a01b031685836108f5565b604080516001600160a01b03861681526020810183905260ff8516818301529051869188917f6b6c1cb8379f6db7ca82573f620d017240ec0023545bdf680a8d311ae80890f29181900360600190a3505050505050565b61066961092f565b6001600160a01b0382165f81815260046020908152604091829020805460ff191685151590811790915591519182527f966c160e1c4dbc7df8d69af4ace01e9297c3cf016397b7914971f2fbfa32672d910160405180910390a25050565b6106cf61092f565b6106d85f61095b565b565b5f82815260026020526040902060068101546001600160a01b031633148061070b57505f546001600160a01b031633145b61074d5760405162461bcd60e51b815260206004820152600e60248201526d139bdd08185d5d1a1bdc9a5e995960921b60448201526064015b60405180910390fd5b60068101805483158015600160a01b0260ff60a01b199092169190911790915560405190815283907f07fbb091b09ad7ea147483e036345c48163068a4af07fe6f8a6342f81b9dbec09060200160405180910390a2505050565b600180545f91826107b783610b67565b9091555060408051610100810182526001600160a01b0389811680835260208084018b81528486018b81525f60608701818152608088018d815260a089018d81523360c08b01818152600160e08d018181528f88526002808c52978f90209d518e54908e166001600160a01b0319909116178e559851908d01559551948b0194909455915160038a015551600489015551600588015590516006909601805492511515600160a01b026001600160a81b03199093169690951695909517179092559251868152939450909284917f2087cb83bf90b2a760abd73c3a295d6e3f81be815ac1096e245f2f0c161482be910160405180910390a495945050505050565b6108c061092f565b6001600160a01b0381166108e957604051631e4fbdf760e01b81525f6004820152602401610744565b6108f28161095b565b50565b61090283838360016109aa565b61092a57604051635274afe760e01b81526001600160a01b0384166004820152602401610744565b505050565b5f546001600160a01b031633146106d85760405163118cdaa760e01b8152336004820152602401610744565b5f80546001600160a01b038381166001600160a01b0319831681178455604051919092169283917f8be0079c531659141344cd1fd0a4f28419497f9722a3daafe3b4186f6b6457e09190a35050565b60405163a9059cbb60e01b5f8181526001600160a01b038616600452602485905291602083604481808b5af1925060015f51148316610a005783831516156109f4573d5f823e3d81fd5b5f873b113d1516831692505b60405250949350505050565b5f60208284031215610a1c575f80fd5b5035919050565b80356001600160a01b0381168114610a39575f80fd5b919050565b5f805f8060808587031215610a51575f80fd5b8435935060208501359250610a6860408601610a23565b9150606085013560ff81168114610a7d575f80fd5b939692955090935050565b5f60208284031215610a98575f80fd5b610aa182610a23565b9392505050565b80358015158114610a39575f80fd5b5f8060408385031215610ac8575f80fd5b610ad183610a23565b9150610adf60208401610aa8565b90509250929050565b5f8060408385031215610af9575f80fd5b50508035926020909101359150565b5f8060408385031215610b19575f80fd5b82359150610adf60208401610aa8565b5f805f805f60a08688031215610b3d575f80fd5b610b4686610a23565b97602087013597506040870135966060810135965060800135945092505050565b5f60018201610b8457634e487b7160e01b5f52601160045260245ffd5b5060010190565b5f60208284031215610b9b575f80fd5b505191905056fea26469706673582212206333cdca36a2161f7c1ba4deac31601eaec09da65ac891c55a4adf1409e88d8d64736f6c63430008180033",
        "nonce": "0xa",
        "chainId": "0x3b91f6ae"
      },
      "additionalContracts": [],
      "isFixedGasLimit": false
    },
    {
      "hash": "0xea1a2bc1f95ee2ee07a326ac2b0eca2524187743531f3ed748d2f8ba12b0a7a0",
      "transactionType": "CALL",
      "contractName": "HumanDrop",
      "contractAddress": "0xceb84dd00cb5492b70d8c37d96701d36b72e7c70",
      "function": "setOperator(address,bool)",
      "arguments": [
        "0xB2F129b0D6558f39702Fb44fa9050E889bdd3AAd",
        "true"
      ],
      "transaction": {
        "from": "0xb2f129b0d6558f39702fb44fa9050e889bdd3aad",
        "to": "0xceb84dd00cb5492b70d8c37d96701d36b72e7c70",
        "gas": "0x1023c",
        "value": "0x0",
        "input": "0x558a7297000000000000000000000000b2f129b0d6558f39702fb44fa9050e889bdd3aad0000000000000000000000000000000000000000000000000000000000000001",
        "nonce": "0xb",
        "chainId": "0x3b91f6ae"
      },
      "additionalContracts": [],
      "isFixedGasLimit": false
    },
    {
      "hash": "0x74b1b437230a31621ac6acc7b5783c5b2b1ae4ab3484fa09fdc7d4d47432ec09",
      "transactionType": "CALL",
      "contractName": "HumanDrop",
      "contractAddress": "0xceb84dd00cb5492b70d8c37d96701d36b72e7c70",
      "function": "createAirdrop(address,uint256,uint256,uint256,uint256)",
      "arguments": [
        "0x5AC074194665D204e46fce13249B924191c70c9A",
        "100000000000000000000",
        "50000000000000000000",
        "1000",
        "1774986665"
      ],
      "transaction": {
        "from": "0xb2f129b0d6558f39702fb44fa9050e889bdd3aad",
        "to": "0xceb84dd00cb5492b70d8c37d96701d36b72e7c70",
        "gas": "0x3d821",
        "value": "0x0",
        "input": "0xdaa893230000000000000000000000005ac074194665d204e46fce13249b924191c70c9a0000000000000000000000000000000000000000000000056bc75e2d63100000000000000000000000000000000000000000000000000002b5e3af16b188000000000000000000000000000000000000000000000000000000000000000003e80000000000000000000000000000000000000000000000000000000069cc25a9",
        "nonce": "0xc",
        "chainId": "0x3b91f6ae"
      },
      "additionalContracts": [],
      "isFixedGasLimit": false
    },
    {
      "hash": "0xfaececf581f87cb475d50a56e9bcbf58d7ee183dd7516b6815e7b3690f877eb3",
      "transactionType": "CALL",
      "contractName": "HumanDropToken",
      "contractAddress": "0x5ac074194665d204e46fce13249b924191c70c9a",
      "function": "transfer(address,uint256)",
      "arguments": [
        "0xCeb84dD00cb5492b70D8c37D96701D36B72E7c70",
        "500000000000000000000000"
      ],
      "transaction": {
        "from": "0xb2f129b0d6558f39702fb44fa9050e889bdd3aad",
        "to": "0x5ac074194665d204e46fce13249b924191c70c9a",
        "gas": "0x1169c",
        "value": "0x0",
        "input": "0xa9059cbb000000000000000000000000ceb84dd00cb5492b70d8c37d96701d36b72e7c700000000000000000000000000000000000000000000069e10de76676d0800000",
        "nonce": "0xd",
        "chainId": "0x3b91f6ae"
      },
      "additionalContracts": [],
      "isFixedGasLimit": false
    }
  ],
  "receipts": [
    {
      "status": "0x1",
      "cumulativeGasUsed": "0x8550f",
      "logs": [
        {
          "address": "0x5ac074194665d204e46fce13249b924191c70c9a",
          "topics": [
            "0xddf252ad1be2c89b69c2b068fc378daa952ba7f163c4a11628f55a4df523b3ef",
            "0x0000000000000000000000000000000000000000000000000000000000000000",
            "0x000000000000000000000000b2f129b0d6558f39702fb44fa9050e889bdd3aad"
          ],
          "data": "0x00000000000000000000000000000000000000000000d3c21bcecceda1000000",
          "blockHash": "0x5a415b76d61ee30e2a8a3ea0510be8d903844c4839e52591d92af2bdda4b3494",
          "blockNumber": "0xeacf488",
          "transactionHash": "0x146784af0bdab219fc7717aeaceaf4ba632348c55a8b22fcc0c3869201d8e1bd",
          "transactionIndex": "0x0",
          "logIndex": "0x0",
          "removed": false
        }
      ],
      "logsBloom": "0x00000000000000000000000000000000000000000000000000000000000000000000000000000000000000000000000000000800000000000000000000000000000000000000000000000008000000000000000000000000000000000000000000000000020000000000000000000800000000000000040000000010000000000000000000000000000000000000000000000000000000000000000000000000000000000000000000000000000000000000000000000000002000000000000020000002000000100000000000000000000000000000000000000000000021000000000000000000000000000000000000000000000000000000000000000000",
      "type": "0x2",
      "transactionHash": "0x146784af0bdab219fc7717aeaceaf4ba632348c55a8b22fcc0c3869201d8e1bd",
      "transactionIndex": "0x0",
      "blockHash": "0x5a415b76d61ee30e2a8a3ea0510be8d903844c4839e52591d92af2bdda4b3494",
      "blockNumber": "0xeacf488",
      "gasUsed": "0x8550f",
      "effectiveGasPrice": "0x13134d1",
      "blobGasUsed": "0x0",
      "from": "0xb2f129b0d6558f39702fb44fa9050e889bdd3aad",
      "to": null,
      "contractAddress": "0x5ac074194665d204e46fce13249b924191c70c9a"
    },
    {
      "status": "0x1",
      "cumulativeGasUsed": "0x5ac6c",
      "logs": [
        {
          "address": "0x0af9eb4c0077ebbdce6417eb8cb6da4a53d0e238",
          "topics": [
            "0x8be0079c531659141344cd1fd0a4f28419497f9722a3daafe3b4186f6b6457e0",
            "0x0000000000000000000000000000000000000000000000000000000000000000",
            "0x000000000000000000000000b2f129b0d6558f39702fb44fa9050e889bdd3aad"
          ],
          "data": "0x",
          "blockHash": "0xfc0fcce17a435719b8dc5aa2b0ff38a07154f220584e4c1813155aaf9e754063",
          "blockNumber": "0xeacf489",
          "transactionHash": "0xfa0cfa5a07d9166b4eeeca38baa0df648573e21c868fd84ad458f1a79b4a465a",
          "transactionIndex": "0x0",
          "logIndex": "0x0",
          "removed": false
        }
      ],
      "logsBloom": "0x00000000000000000000000000000000000000000000000000800000000000000000000000000000000000000000000000000000000000000000000000000000000000000000000000000000000000000001000000000000000000000000000000000000020000000004000000000800000000000000040000000000000000400000000000000000000000000000000000000000000000000000000000000000000000000000000000000000000000000000000000000000002000000000000020000001000000000010000000000000000000000000000000000000000020000000000000000000000000000000000000000000000000000000000000000000",
      "type": "0x2",
      "transactionHash": "0xfa0cfa5a07d9166b4eeeca38baa0df648573e21c868fd84ad458f1a79b4a465a",
      "transactionIndex": "0x0",
      "blockHash": "0xfc0fcce17a435719b8dc5aa2b0ff38a07154f220584e4c1813155aaf9e754063",
      "blockNumber": "0xeacf489",
      "gasUsed": "0x5ac6c",
      "effectiveGasPrice": "0x13134d1",
      "blobGasUsed": "0x0",
      "from": "0xb2f129b0d6558f39702fb44fa9050e889bdd3aad",
      "to": null,
      "contractAddress": "0x0af9eb4c0077ebbdce6417eb8cb6da4a53d0e238"
    },
    {
      "status": "0x1",
      "cumulativeGasUsed": "0xbaad",
      "logs": [
        {
          "address": "0x0af9eb4c0077ebbdce6417eb8cb6da4a53d0e238",
          "topics": [
            "0x966c160e1c4dbc7df8d69af4ace01e9297c3cf016397b7914971f2fbfa32672d",
            "0x000000000000000000000000b2f129b0d6558f39702fb44fa9050e889bdd3aad"
          ],
          "data": "0x0000000000000000000000000000000000000000000000000000000000000001",
          "blockHash": "0x909a749117616204a485a9468afd7e43c35da83760724b53a7bbb0122a2413aa",
          "blockNumber": "0xeacf48a",
          "transactionHash": "0xdcb7e2c92340a84551e8e1e3728af07f5bd04fdedb6c1cdafff0c65398c25e73",
          "transactionIndex": "0x0",
          "logIndex": "0x0",
          "removed": false
        }
      ],
      "logsBloom": "0x00000000000000000000100000000000000000000000000000000000000000000000000000000000000000000000000000000000000000000000000000000000000000000000000000000000000000000000000000000000000000000000000000000000000000000004000000000000020000000000040000000000000000000000000000000000000000000000000000000000000000000000000000000000000000000000000000000000000000000000000000000000002000000000000020000001000000000010000000000000000000000000000000000000000000000000000000000000000000100000000000000000000000000000000000000000",
      "type": "0x2",
      "transactionHash": "0xdcb7e2c92340a84551e8e1e3728af07f5bd04fdedb6c1cdafff0c65398c25e73",
      "transactionIndex": "0x0",
      "blockHash": "0x909a749117616204a485a9468afd7e43c35da83760724b53a7bbb0122a2413aa",
      "blockNumber": "0xeacf48a",
      "gasUsed": "0xbaad",
      "effectiveGasPrice": "0x13134d1",
      "blobGasUsed": "0x0",
      "from": "0xb2f129b0d6558f39702fb44fa9050e889bdd3aad",
      "to": "0x0af9eb4c0077ebbdce6417eb8cb6da4a53d0e238",
      "contractAddress": null
    },
    {
      "status": "0x1",
      "cumulativeGasUsed": "0xb364a",
      "logs": [
        {
          "address": "0xceb84dd00cb5492b70d8c37d96701d36b72e7c70",
          "topics": [
            "0x8be0079c531659141344cd1fd0a4f28419497f9722a3daafe3b4186f6b6457e0",
            "0x0000000000000000000000000000000000000000000000000000000000000000",
            "0x000000000000000000000000b2f129b0d6558f39702fb44fa9050e889bdd3aad"
          ],
          "data": "0x",
          "blockHash": "0x77b0b9cec5f33e380f90dbd37c0e106b4b915ababf08cced0e6de5fd7f92f2f3",
          "blockNumber": "0xeacf48b",
          "transactionHash": "0x0501e4f8b21d51087e8adbcd217f94f83ea93f148fa5621d831dccebb622673b",
          "transactionIndex": "0x0",
          "logIndex": "0x0",
          "removed": false
        }
      ],
      "logsBloom": "0x00000000000000000000000000000000000000000000000000800000000000000000000000000000000000000000000000000000000000000000000000000000000000000000000000000000000000000001000000000000000000000000000000000000020000000000000000000800000000000000040000000000000000400000000000000000800000000000000000000000000000000000000000000000000000000000000000000000000000000000000000000000002000000000000020000000000000000200000000000000000000000000000000000000000020000000008000000000000000000000000000000000000000000000000000000000",
      "type": "0x2",
      "transactionHash": "0x0501e4f8b21d51087e8adbcd217f94f83ea93f148fa5621d831dccebb622673b",
      "transactionIndex": "0x0",
      "blockHash": "0x77b0b9cec5f33e380f90dbd37c0e106b4b915ababf08cced0e6de5fd7f92f2f3",
      "blockNumber": "0xeacf48b",
      "gasUsed": "0xb364a",
      "effectiveGasPrice": "0x13134d1",
      "blobGasUsed": "0x0",
      "from": "0xb2f129b0d6558f39702fb44fa9050e889bdd3aad",
      "to": null,
      "contractAddress": "0xceb84dd00cb5492b70d8c37d96701d36b72e7c70"
    },
    {
      "status": "0x1",
      "cumulativeGasUsed": "0xbaf6",
      "logs": [
        {
          "address": "0xceb84dd00cb5492b70d8c37d96701d36b72e7c70",
          "topics": [
            "0x966c160e1c4dbc7df8d69af4ace01e9297c3cf016397b7914971f2fbfa32672d",
            "0x000000000000000000000000b2f129b0d6558f39702fb44fa9050e889bdd3aad"
          ],
          "data": "0x0000000000000000000000000000000000000000000000000000000000000001",
          "blockHash": "0x338873cba9c4aafec7c82931d455978e1b8b51f605dfda2eedbf55397b2f3740",
          "blockNumber": "0xeacf48c",
          "transactionHash": "0xea1a2bc1f95ee2ee07a326ac2b0eca2524187743531f3ed748d2f8ba12b0a7a0",
          "transactionIndex": "0x0",
          "logIndex": "0x0",
          "removed": false
        }
      ],
      "logsBloom": "0x00000000000000000000100000000000000000000000000000000000000000000000000000000000000000000000000000000000000000000000000000000000000000000000000000000000000000000000000000000000000000000000000000000000000000000000000000000000020000000000040000000000000000000000000000000000800000000000000000000000000000000000000000000000000000000000000000000000000000000000000000000000002000000000000020000000000000000200000000000000000000000000000000000000000000000000008000000000000000100000000000000000000000000000000000000000",
      "type": "0x2",
      "transactionHash": "0xea1a2bc1f95ee2ee07a326ac2b0eca2524187743531f3ed748d2f8ba12b0a7a0",
      "transactionIndex": "0x0",
      "blockHash": "0x338873cba9c4aafec7c82931d455978e1b8b51f605dfda2eedbf55397b2f3740",
      "blockNumber": "0xeacf48c",
      "gasUsed": "0xbaf6",
      "effectiveGasPrice": "0x13134d1",
      "blobGasUsed": "0x0",
      "from": "0xb2f129b0d6558f39702fb44fa9050e889bdd3aad",
      "to": "0xceb84dd00cb5492b70d8c37d96701d36b72e7c70",
      "contractAddress": null
    },
    {
      "status": "0x1",
      "cumulativeGasUsed": "0x2c87f",
      "logs": [
        {
          "address": "0xceb84dd00cb5492b70d8c37d96701d36b72e7c70",
          "topics": [
            "0x2087cb83bf90b2a760abd73c3a295d6e3f81be815ac1096e245f2f0c161482be",
            "0x0000000000000000000000000000000000000000000000000000000000000000",
            "0x0000000000000000000000005ac074194665d204e46fce13249b924191c70c9a",
            "0x000000000000000000000000b2f129b0d6558f39702fb44fa9050e889bdd3aad"
          ],
          "data": "0x0000000000000000000000000000000000000000000000000000000069cc25a9",
          "blockHash": "0x6fb21185a1247a1919e94f348626ea163058e51fed7b68822dec0c4afba74073",
          "blockNumber": "0xeacf48d",
          "transactionHash": "0x74b1b437230a31621ac6acc7b5783c5b2b1ae4ab3484fa09fdc7d4d47432ec09",
          "transactionIndex": "0x0",
          "logIndex": "0x0",
          "removed": false
        }
      ],
      "logsBloom": "0x000000000000000000000000000000000000000000000000000000000000000000000000000000000000000000000000000000000000000000000100000000000000000000000000000000000000000000000000000000000000000000000000000000000200000000000000000008000000000000000402000002000000000000000000000000008000000000000000000000000000000000000000000000000000000000000000000000000008000000000004000000000020000000000000200000000000000002000000000000000000000000000000000000000000a0000000008000000000000000000000000000000000000000000000000000000000",
      "type": "0x2",
      "transactionHash": "0x74b1b437230a31621ac6acc7b5783c5b2b1ae4ab3484fa09fdc7d4d47432ec09",
      "transactionIndex": "0x0",
      "blockHash": "0x6fb21185a1247a1919e94f348626ea163058e51fed7b68822dec0c4afba74073",
      "blockNumber": "0xeacf48d",
      "gasUsed": "0x2c87f",
      "effectiveGasPrice": "0x13134d1",
      "blobGasUsed": "0x0",
      "from": "0xb2f129b0d6558f39702fb44fa9050e889bdd3aad",
      "to": "0xceb84dd00cb5492b70d8c37d96701d36b72e7c70",
      "contractAddress": null
    },
    {
      "status": "0x1",
      "cumulativeGasUsed": "0xc9b6",
      "logs": [
        {
          "address": "0x5ac074194665d204e46fce13249b924191c70c9a",
          "topics": [
            "0xddf252ad1be2c89b69c2b068fc378daa952ba7f163c4a11628f55a4df523b3ef",
            "0x000000000000000000000000b2f129b0d6558f39702fb44fa9050e889bdd3aad",
            "0x000000000000000000000000ceb84dd00cb5492b70d8c37d96701d36b72e7c70"
          ],
          "data": "0x0000000000000000000000000000000000000000000069e10de76676d0800000",
          "blockHash": "0x0ef57c54339a7cd64fa6c6817add03f396d0ec6443e42cd9808a0effc61ce958",
          "blockNumber": "0xeacf48e",
          "transactionHash": "0xfaececf581f87cb475d50a56e9bcbf58d7ee183dd7516b6815e7b3690f877eb3",
          "transactionIndex": "0x0",
          "logIndex": "0x0",
          "removed": false
        }
      ],
      "logsBloom": "0x00000000000000000000000000000000000000000000000000000000020000000000000000000000000000000000000000000800000000000000000000000000000000000000000000000008000000000100000000000000000000000000000000000000000000000000000000000000000000000000040000000010000000000000000000000000000000000000000000000000000000000000000000000000000000000000000000000000000000000000000000000000002000000000000020000802000000100000000000000000000000000000000000000000000001000000000000000000000000000000000000000000000000000000000000000000",
      "type": "0x2",
      "transactionHash": "0xfaececf581f87cb475d50a56e9bcbf58d7ee183dd7516b6815e7b3690f877eb3",
      "transactionIndex": "0x0",
      "blockHash": "0x0ef57c54339a7cd64fa6c6817add03f396d0ec6443e42cd9808a0effc61ce958",
      "blockNumber": "0xeacf48e",
      "gasUsed": "0xc9b6",
      "effectiveGasPrice": "0x13134d1",
      "blobGasUsed": "0x0",
      "from": "0xb2f129b0d6558f39702fb44fa9050e889bdd3aad",
      "to": "0x5ac074194665d204e46fce13249b924191c70c9a",
      "contractAddress": null
    }
  ],
  "libraries": [],
  "pending": [],
  "returns": {},
  "timestamp": 1772395060784,
  "chain": 999421614,
  "commit": null
}