{
  "transactions": [
    {
      "hash": "0x214220fd5ab37cca105ae21a7ff65b3d75a065111e983380a8085c1488e44898",
      "transactionType": "CREATE",
      "contractName": "HumanDropToken",
      "contractAddress": "0xf30778d9dacd19f567adb1371da747d6c26c293a",
      "function": null,
      "arguments": [
        "1000000000000000000000000"
      ],
      "transaction": {
        "from": "0xb2f129b0d6558f39702fb44fa9050e889bdd3aad",
        "gas": "0xc288f",
        "value": "0x0",
        "input": "0x60803462000396576001600160401b0390601f601f1962000bfe388190038381018316850186811186821017620002a55785928291604052833960209485918101031262000396575193620000536200039a565b92600f84526e243ab6b0b7223937b8102a37b5b2b760891b85850152620000796200039a565b936003918286526212111560ea1b878701528151848111620002a55783546001938482811c921680156200038b575b8a8310146200037757818484931162000324575b508990848311600114620002c5575f92620002b9575b50505f1982861b1c191690831b1783555b8551938411620002a55760049586548381811c911680156200029a575b8982101462000287578281116200023f575b5087918511600114620001da57849550908492915f95620001ce575b50501b925f19911b1c19161781555b3315620001b75760025490838201809211620001a457505f917fddf252ad1be2c89b69c2b068fc378daa952ba7f163c4a11628f55a4df523b3ef91600255338352828152604083208481540190556040519384523393a36040516108439081620003bb8239f35b601190634e487b7160e01b5f525260245ffd5b6024905f6040519163ec442f0560e01b8352820152fd5b015193505f806200012e565b929194841692865f5284885f20945f5b8a898383106200022757505050106200020d575b50505050811b0181556200013d565b01519060f8845f19921b161c191690555f808080620001fe565b868601518955909701969485019488935001620001ea565b875f52885f208380880160051c8201928b89106200027d575b0160051c019084905b8281106200027157505062000112565b5f815501849062000261565b9250819262000258565b602288634e487b7160e01b5f525260245ffd5b90607f169062000100565b634e487b7160e01b5f52604160045260245ffd5b015190505f80620000d2565b908886941691875f528b5f20925f5b8d8282106200030d5750508411620002f5575b505050811b018355620000e3565b01515f1983881b60f8161c191690555f8080620002e7565b8385015186558997909501949384019301620002d4565b909150855f52895f208480850160051c8201928c86106200036d575b918791869594930160051c01915b8281106200035e575050620000bc565b5f81558594508791016200034e565b9250819262000340565b634e487b7160e01b5f52602260045260245ffd5b91607f1691620000a8565b5f80fd5b60408051919082016001600160401b03811183821017620002a55760405256fe6080604090808252600480361015610015575f80fd5b5f3560e01c91826306fdde031461055b57508163095ea7b31461047457816318160ddd1461045657816323b872dd146102ec578163313ce567146102d157816370a082311461028e57816395d89b411461010d57508063a9059cbb146100dd5763dd62ed3e14610083575f80fd5b346100d957806003193601126100d95760209061009e61068a565b6100a66106ad565b9073ffffffffffffffffffffffffffffffffffffffff8091165f5260018452825f2091165f528252805f20549051908152f35b5f80fd5b50346100d957806003193601126100d9576020906101066100fc61068a565b60243590336106d0565b5160018152f35b9050346100d9575f6003193601126100d95781515f928254936001948060011c60018216968715610284575b602092838310891461025857869798838897985290815f1461021b57506001146101be575b50505003601f01601f191682019267ffffffffffffffff841183851017610192575082918261018e925282610644565b0390f35b6041907f4e487b71000000000000000000000000000000000000000000000000000000005f525260245ffd5b5f888152929493507f8a35acfbc15ff81a39ae7d344fd709f28e8600b4aa8c65c6b64bfe7fe36bd19b5b8284106102055750505090601f1992601f9282010191819361015e565b80548885018701528794509285019281016101e8565b7fffffffffffffffffffffffffffffffffffffffffffffffffffffffffffffff0016848701525050151560051b830101905081601f601f1961015e565b6022887f4e487b71000000000000000000000000000000000000000000000000000000005f525260245ffd5b90607f1690610139565b82346100d95760206003193601126100d95760209073ffffffffffffffffffffffffffffffffffffffff6102c061068a565b165f525f8252805f20549051908152f35b82346100d9575f6003193601126100d9576020905160128152f35b9050346100d95760606003193601126100d95761030761068a565b61030f6106ad565b906044359273ffffffffffffffffffffffffffffffffffffffff8216805f526001602052855f20335f52602052855f2054917fffffffffffffffffffffffffffffffffffffffffffffffffffffffffffffffff8310610377575b6020876101068888886106d0565b8583106104115781156103e25733156103b357505f90815260016020908152868220338352815290869020918590039091558290610106610369565b6024905f8851917f94280d62000000000000000000000000000000000000000000000000000000008352820152fd5b6024905f8851917fe602df05000000000000000000000000000000000000000000000000000000008352820152fd5b86517ffb8f41b2000000000000000000000000000000000000000000000000000000008152339181019182526020820193909352604081018690528291506060010390fd5b82346100d9575f6003193601126100d9576020906002549051908152f35b82346100d957806003193601126100d95761048d61068a565b60243590331561052c5773ffffffffffffffffffffffffffffffffffffffff169081156104fd5760209350335f5260018452825f20825f52845280835f205582519081527f8c5be1e5ebec7d5bd14f71427d1e84f3dd0314c0f7b2291e5b200ac8c7c3b925843392a35160018152f35b6024845f8551917f94280d62000000000000000000000000000000000000000000000000000000008352820152fd5b6024845f8551917fe602df05000000000000000000000000000000000000000000000000000000008352820152fd5b909150346100d9575f6003193601126100d9575f92600354936001948060011c6001821696871561063a575b602092838310891461025857869798838897985290815f1461021b57506001146105db5750505003601f01601f191682019267ffffffffffffffff841183851017610192575082918261018e925282610644565b60035f908152929493507fc2575a0e9e593c00f959f8c92f12db2869c3395a3b0502d05e2516446f71f85b5b8284106106245750505090601f1992601f9282010191819361015e565b8054888501870152879450928501928101610607565b90607f1690610587565b6020808252825181830181905293925f5b85811061067657505050601f19601f845f6040809697860101520116010190565b818101830151848201604001528201610655565b6004359073ffffffffffffffffffffffffffffffffffffffff821682036100d957565b6024359073ffffffffffffffffffffffffffffffffffffffff821682036100d957565b9173ffffffffffffffffffffffffffffffffffffffff8084169283156107dd57169283156107ad57825f525f60205260405f2054908282106107555750817fddf252ad1be2c89b69c2b068fc378daa952ba7f163c4a11628f55a4df523b3ef92602092855f525f84520360405f2055845f5260405f20818154019055604051908152a3565b6040517fe450d38c00000000000000000000000000000000000000000000000000000000815273ffffffffffffffffffffffffffffffffffffffff919091166004820152602481019190915260448101829052606490fd5b60246040517fec442f050000000000000000000000000000000000000000000000000000000081525f6004820152fd5b60246040517f96c6fd1e0000000000000000000000000000000000000000000000000000000081525f6004820152fdfea2646970667358221220f9a1d36296e352d88854e8bee133d841cc29b3622b3225beaf87ec7f367c431e64736f6c6343000818003300000000000000000000000000000000000000000000d3c21bcecceda1000000",
        "nonce": "0x0",
        "chainId": "0x3b91f6ae"
      },
      "additionalContracts": [],
      "isFixedGasLimit": false
    },
    {
      "hash": "0x6af61779b306a77d667486be9083165c0245085f86a5b34d976277e3b4fe1b59",
      "transactionType": "CREATE",
      "contractName": "WorldIDVerifier",
      "contractAddress": "0xcca909ec1debe995068b125528e4de598373ee11",
      "function": null,
      "arguments": null,
      "transaction": {
        "from": "0xb2f129b0d6558f39702fb44fa9050e889bdd3aad",
        "gas": "0x8717a",
        "value": "0x0",
        "input": "0x60808060405234610078573315610063575f8054336001600160a01b03198216811783556040519290916001600160a01b0316907f8be0079c531659141344cd1fd0a4f28419497f9722a3daafe3b4186f6b6457e09080a361064f908161007d8239f35b631e4fbdf760e01b81525f6004820152602490fd5b5f80fdfe608060409080825260049081361015610016575f80fd5b5f3560e01c90816313e7c9d81461051357508063558a72971461046357806358937cc8146103ee5780635e0f5e5114610269578063715018a6146101ed5780638da5cb5b146101ba578063afaf2b1a1461018d578063b90b0a10146101495763f2fde38b14610083575f80fd5b346101455760206003193601126101455761009c610559565b906100a56105c9565b73ffffffffffffffffffffffffffffffffffffffff8092169283156101165750505f54827fffffffffffffffffffffffff00000000000000000000000000000000000000008216175f55167f8be0079c531659141344cd1fd0a4f28419497f9722a3daafe3b4186f6b6457e05f80a3005b905f60249251917f1e4fbdf7000000000000000000000000000000000000000000000000000000008352820152fd5b5f80fd5b50903461014557602060031936011261014557606091355f526001602052805f2090600182549201549060ff8151938181161515855260081c166020840152820152f35b50903461014557602060031936011261014557602091355f526001825260ff815f20541690519015158152f35b8234610145575f6003193601126101455760209073ffffffffffffffffffffffffffffffffffffffff5f54169051908152f35b34610145575f600319360112610145576102056105c9565b5f73ffffffffffffffffffffffffffffffffffffffff81547fffffffffffffffffffffffff000000000000000000000000000000000000000081168355167f8be0079c531659141344cd1fd0a4f28419497f9722a3daafe3b4186f6b6457e08280a3005b5090346101455780600319360112610145578135916024359060ff821680920361014557335f52600260205260ff835f20541615806103cd575b6103a657835f52600160205260ff835f20541661037f5750907f49c3f150dcbb8aa56dcae3398f7fc420f9f1fe840c9f9e659f58b9eeb87f4bbb916102e661057c565b6001815260016020820183815284830190428252875f528260205261033c865f2094511515859060ff7fffffffffffffffffffffffffffffffffffffffffffffffffffffffffffffff0083541691151516179055565b517fffffffffffffffffffffffffffffffffffffffffffffffffffffffffffff00ff61ff0085549260081b169116178355519101558151908152426020820152a2005b82517f118fd7b8000000000000000000000000000000000000000000000000000000008152fd5b82517f7c214f04000000000000000000000000000000000000000000000000000000008152fd5b5073ffffffffffffffffffffffffffffffffffffffff5f54163314156102a3565b509034610145576020600319360112610145576060915f8261040e61057c565b8281528260208201520152355f526001602052805f209061042d61057c565b60ff835483600183831615159687865284602087019460081c168452015493019283528351948552511660208401525190820152f35b823461014557806003193601126101455761047c610559565b9060243591821515808403610145577f966c160e1c4dbc7df8d69af4ace01e9297c3cf016397b7914971f2fbfa32672d9261050c73ffffffffffffffffffffffffffffffffffffffff6020946104d06105c9565b1695865f5260028552825f209060ff7fffffffffffffffffffffffffffffffffffffffffffffffffffffffffffffff0083541691151516179055565b51908152a2005b8390346101455760206003193601126101455760ff60209273ffffffffffffffffffffffffffffffffffffffff610548610559565b165f52600284525f20541615158152f35b6004359073ffffffffffffffffffffffffffffffffffffffff8216820361014557565b604051906060820182811067ffffffffffffffff82111761059c57604052565b7f4e487b71000000000000000000000000000000000000000000000000000000005f52604160045260245ffd5b73ffffffffffffffffffffffffffffffffffffffff5f541633036105e957565b60246040517f118cdaa7000000000000000000000000000000000000000000000000000000008152336004820152fdfea2646970667358221220e073029aeeeafed109a4c906278f0968a90032314cc07a40b9906bbee3dee62164736f6c63430008180033",
        "nonce": "0x1",
        "chainId": "0x3b91f6ae"
      },
      "additionalContracts": [],
      "isFixedGasLimit": false
    },
    {
      "hash": "0xa4a1ebd112294d7dd04d1d46169caab2a39dbc393291f8425da3aefd3fd6b849",
      "transactionType": "CALL",
      "contractName": "WorldIDVerifier",
      "contractAddress": "0xcca909ec1debe995068b125528e4de598373ee11",
      "function": "setOperator(address,bool)",
      "arguments": [
        "0xB2F129b0D6558f39702Fb44fa9050E889bdd3AAd",
        "true"
      ],
      "transaction": {
        "from": "0xb2f129b0d6558f39702fb44fa9050e889bdd3aad",
        "to": "0xcca909ec1debe995068b125528e4de598373ee11",
        "gas": "0x100f1",
        "value": "0x0",
        "input": "0x558a7297000000000000000000000000b2f129b0d6558f39702fb44fa9050e889bdd3aad0000000000000000000000000000000000000000000000000000000000000001",
        "nonce": "0x2",
        "chainId": "0x3b91f6ae"
      },
      "additionalContracts": [],
      "isFixedGasLimit": false
    },
    {
      "hash": "0x53efa68deaabc6a6b419cfb26fc5041eda91ca04428d630cd7bea9cff8f07287",
      "transactionType": "CREATE",
      "contractName": "HumanDrop",
      "contractAddress": "0x7ad7d4795cc11457e250cd13198c9998f8cffb0c",
      "function": null,
      "arguments": null,
      "transaction": {
        "from": "0xb2f129b0d6558f39702fb44fa9050e889bdd3aad",
        "gas": "0xf9eab",
        "value": "0x0",
        "input": "0x60808060405234610078573315610063575f8054336001600160a01b03198216811783556040519290916001600160a01b0316907f8be0079c531659141344cd1fd0a4f28419497f9722a3daafe3b4186f6b6457e09080a3610cec908161007d8239f35b631e4fbdf760e01b81525f6004820152602490fd5b5f80fdfe608060409080825260049081361015610016575f80fd5b60e05f35811c918263052dd94e14610a6e57508163101256811461069b57816313e7c9d814610653578163558a7297146105ae57816360db50821461051e578163715018a6146104a25781638da5cb5b1461046f5781639fc704bb1461043e578163a54ab4571461043e578163af1665cb1461030c578163aff38dc8146102ee578163daa8932314610177575063f2fde38b146100b1575f80fd5b34610173576020600319360112610173576100ca610b7a565b906100d3610c66565b73ffffffffffffffffffffffffffffffffffffffff8092169283156101445750505f54827fffffffffffffffffffffffff00000000000000000000000000000000000000008216175f55167f8be0079c531659141344cd1fd0a4f28419497f9722a3daafe3b4186f6b6457e05f80a3005b905f60249251917f1e4fbdf7000000000000000000000000000000000000000000000000000000008352820152fd5b5f80fd5b8284346101735760a060031936011261017357602092610195610b7a565b6102bd6084359260015480966101aa82610c0c565b6001558651946101b986610bc2565b600673ffffffffffffffffffffffffffffffffffffffff80921696878152888c82019460243586528b808401604435815260608501905f8252876080870193606435855260a0880196875260c088019c8d33905288019b60018d525f526020600290525f20965116987fffffffffffffffffffffffff0000000000000000000000000000000000000000998a885416178755516001870155516002860155516003850155519083015551600582015501935116908354161782555115157fffffffffffffffffffffff00ffffffffffffffffffffffffffffffffffffffff74ff0000000000000000000000000000000000000000835492151560a01b169116179055565b8251918252837f2087cb83bf90b2a760abd73c3a295d6e3f81be815ac1096e245f2f0c161482be863394a451908152f35b8334610173575f600319360112610173576020906001549051908152f35b505034610173578160031936011261017357803591610329610b9d565b91835f5260026020526006825f20019073ffffffffffffffffffffffffffffffffffffffff808354163314908115610431575b50156103d4575080547fffffffffffffffffffffff00ffffffffffffffffffffffffffffffffffffffff1683151560a01b74ff0000000000000000000000000000000000000000161790557f07fbb091b09ad7ea147483e036345c48163068a4af07fe6f8a6342f81b9dbec0916020915190158152a2005b60649060208451917f08c379a0000000000000000000000000000000000000000000000000000000008352820152600e60248201527f4e6f7420617574686f72697a65640000000000000000000000000000000000006044820152fd5b90505f541633145f61035c565b83346101735760209061045036610bac565b905f5260038352815f20905f52825260ff815f20541690519015158152f35b8334610173575f6003193601126101735760209073ffffffffffffffffffffffffffffffffffffffff5f54169051908152f35b34610173575f600319360112610173576104ba610c66565b5f73ffffffffffffffffffffffffffffffffffffffff81547fffffffffffffffffffffffff000000000000000000000000000000000000000081168355167f8be0079c531659141344cd1fd0a4f28419497f9722a3daafe3b4186f6b6457e08280a3005b839150346101735760206003193601126101735760ff8361010094355f526002602052835f2073ffffffffffffffffffffffffffffffffffffffff908181541695600182015493600283015460038401549184015492600660058601549501549681519a8b5260208b01528901526060880152608087015260a0860152811660c085015260a01c16151590820152f35b82843461017357806003193601126101735760207f966c160e1c4dbc7df8d69af4ace01e9297c3cf016397b7914971f2fbfa32672d916105ec610b7a565b9073ffffffffffffffffffffffffffffffffffffffff61060a610b9d565b92610613610c66565b1694855f528352805f20911515917fffffffffffffffffffffffffffffffffffffffffffffffffffffffffffffff0081541660ff841617905551908152a2005b8284346101735760206003193601126101735760209173ffffffffffffffffffffffffffffffffffffffff610686610b7a565b165f52825260ff815f20541690519015158152f35b82843461017357608060031936011261017357813590602435926044359173ffffffffffffffffffffffffffffffffffffffff808416809403610173576064359260ff841680940361017357335f5260209080825260ff845f2054161580610a61575b610a3a57865f5260028252835f209260ff600685015460a01c1615610a1257600584015442116109ea57875f5260038352845f20895f52835260ff855f2054166109c2576001861080156109b8575b61099057875f5260038352845f20895f528352845f2060017fffffffffffffffffffffffffffffffffffffffffffffffffffffffffffffff008254161790556003840161079a8154610c0c565b905560028603610985576001840154935b541684517f70a0823100000000000000000000000000000000000000000000000000000000815230838201528381602481855afa90811561097b579085915f916108ea575b50106108c2578451917fa9059cbb000000000000000000000000000000000000000000000000000000005f5287815284602452835f60448180865af160015f51148116156108a3575b838752156108775750508351958652508401528201527f6b6c1cb8379f6db7ca82573f620d017240ec0023545bdf680a8d311ae80890f290606090a3005b602493507f5274afe7000000000000000000000000000000000000000000000000000000008352820152fd5b60018115166108b957823b15153d151616610839565b833d5f823e3d90fd5b5083517ff4d678b8000000000000000000000000000000000000000000000000000000008152fd5b915050833d8511610974575b7fffffffffffffffffffffffffffffffffffffffffffffffffffffffffffffffe0601f820116820182811067ffffffffffffffff8211176109485785918391895281010312610173578490518b6107f0565b6041857f4e487b71000000000000000000000000000000000000000000000000000000005f525260245ffd5b503d6108f6565b86513d5f823e3d90fd5b6002840154936107ab565b5083517fd1459f79000000000000000000000000000000000000000000000000000000008152fd5b506002861161074d565b5083517f646cf558000000000000000000000000000000000000000000000000000000008152fd5b5083517f5228cdbf000000000000000000000000000000000000000000000000000000008152fd5b5083517ff1195438000000000000000000000000000000000000000000000000000000008152fd5b83517f7c214f04000000000000000000000000000000000000000000000000000000008152fd5b50825f54163314156106fe565b84828534610173576020600319360112610173575f8285610a9161010097610bc2565b82815282602082015282868201528260608201528260808201528260a08201528260c0820152015280355f526002602052825f208351610ad081610bc2565b73ffffffffffffffffffffffffffffffffffffffff91828154169586835260018201549460208401958652600283015491808501928352600384015491606086019283528401549260808601938452600660058601549560a0880196875201549760ff8a60c08901988a8c168a52019960a01c161515895282519a8b525160208b015251908901525160608801525160808701525160a0860152511660c084015251151590820152f35b6004359073ffffffffffffffffffffffffffffffffffffffff8216820361017357565b60243590811515820361017357565b6003196040910112610173576004359060243590565b610100810190811067ffffffffffffffff821117610bdf57604052565b7f4e487b71000000000000000000000000000000000000000000000000000000005f52604160045260245ffd5b7fffffffffffffffffffffffffffffffffffffffffffffffffffffffffffffffff8114610c395760010190565b7f4e487b71000000000000000000000000000000000000000000000000000000005f52601160045260245ffd5b73ffffffffffffffffffffffffffffffffffffffff5f54163303610c8657565b60246040517f118cdaa7000000000000000000000000000000000000000000000000000000008152336004820152fdfea26469706673582212201f7ada35020f1dd10a0e13be02925525f3f031b5c1d3a8a668929ffbc586a13864736f6c63430008180033",
        "nonce": "0x3",
        "chainId": "0x3b91f6ae"
      },
      "additionalContracts": [],
      "isFixedGasLimit": false
    },
    {
      "hash": "0xa3c1389042b65def3a6ba737a2b93246ad0725df399e0ac471d00394a8a2227b",
      "transactionType": "CALL",
      "contractName": "HumanDrop",
      "contractAddress": "0x7ad7d4795cc11457e250cd13198c9998f8cffb0c",
      "function": "setOperator(address,bool)",
      "arguments": [
        "0xB2F129b0D6558f39702Fb44fa9050E889bdd3AAd",
        "true"
      ],
      "transaction": {
        "from": "0xb2f129b0d6558f39702fb44fa9050e889bdd3aad",
        "to": "0x7ad7d4795cc11457e250cd13198c9998f8cffb0c",
        "gas": "0x11065",
        "value": "0x0",
        "input": "0x558a7297000000000000000000000000b2f129b0d6558f39702fb44fa9050e889bdd3aad0000000000000000000000000000000000000000000000000000000000000001",
        "nonce": "0x4",
        "chainId": "0x3b91f6ae"
      },
      "additionalContracts": [],
      "isFixedGasLimit": false
    },
    {
      "hash": "0x09f5e3a844b040d34010c8038b375a4480ec1e748b26722a519def98e6019fb4",
      "transactionType": "CALL",
      "contractName": "HumanDrop",
      "contractAddress": "0x7ad7d4795cc11457e250cd13198c9998f8cffb0c",
      "function": "createAirdrop(address,uint256,uint256,uint256,uint256)",
      "arguments": [
        "0xF30778D9dacd19F567aDb1371dA747d6C26C293A",
        "100000000000000000000",
        "50000000000000000000",
        "1000",
        "1774986334"
      ],
      "transaction": {
        "from": "0xb2f129b0d6558f39702fb44fa9050e889bdd3aad",
        "to": "0x7ad7d4795cc11457e250cd13198c9998f8cffb0c",
        "gas": "0x3d8dd",
        "value": "0x0",
        "input": "0xdaa89323000000000000000000000000f30778d9dacd19f567adb1371da747d6c26c293a0000000000000000000000000000000000000000000000056bc75e2d63100000000000000000000000000000000000000000000000000002b5e3af16b188000000000000000000000000000000000000000000000000000000000000000003e80000000000000000000000000000000000000000000000000000000069cc245e",
        "nonce": "0x5",
        "chainId": "0x3b91f6ae"
      },
      "additionalContracts": [],
      "isFixedGasLimit": false
    },
    {
      "hash": "0x6307cf929dd28e6904fceb7e1de71a5d947a512cfc830a481530702ed2864699",
      "transactionType": "CALL",
      "contractName": "HumanDropToken",
      "contractAddress": "0xf30778d9dacd19f567adb1371da747d6c26c293a",
      "function": "transfer(address,uint256)",
      "arguments": [
        "0x7aD7D4795cc11457E250cd13198c9998F8CFFb0C",
        "500000000000000000000000"
      ],
      "transaction": {
        "from": "0xb2f129b0d6558f39702fb44fa9050e889bdd3aad",
        "to": "0xf30778d9dacd19f567adb1371da747d6c26c293a",
        "gas": "0x1147b",
        "value": "0x0",
        "input": "0xa9059cbb0000000000000000000000007ad7d4795cc11457e250cd13198c9998f8cffb0c0000000000000000000000000000000000000000000069e10de76676d0800000",
        "nonce": "0x6",
        "chainId": "0x3b91f6ae"
      },
      "additionalContracts": [],
      "isFixedGasLimit": false
    }
  ],
  "receipts": [
    {
      "status": "0x1",
      "cumulativeGasUsed": "0x67ead",
      "logs": [
        {
          "address": "0xf30778d9dacd19f567adb1371da747d6c26c293a",
          "topics": [
            "0x8be0079c531659141344cd1fd0a4f28419497f9722a3daafe3b4186f6b6457e0",
            "0x0000000000000000000000000000000000000000000000000000000000000000",
            "0x000000000000000000000000b2f129b0d6558f39702fb44fa9050e889bdd3aad"
          ],
          "data": "0x",
          "blockHash": "0x96695d6046c1d3990e6fac3ba140a659e39d4b972635a60cc20802fe43967a02",
          "blockNumber": "0xeacf481",
          "transactionHash": "0x6af61779b306a77d667486be9083165c0245085f86a5b34d976277e3b4fe1b59",
          "transactionIndex": "0x0",
          "logIndex": "0x0",
          "removed": false
        }
      ],
      "logsBloom": "0x00000000000000040000000000000000000000000000000000800000000000000000000000000000000000000000000000000000000000000000010000000000000000000000000000000000000000000001000000000000000000000000000000000000020000000000000000000800000000000000040000000000000000400000000000000000000000000000000000000000000000000000000000000000000000000000000000000000000000000000000000000000002000000000000020000000000000000000000000000000000000000000000400000000000020000000000000000000000000000000000000000000000000000000000000000000",
      "type": "0x2",
      "transactionHash": "0x6af61779b306a77d667486be9083165c0245085f86a5b34d976277e3b4fe1b59",
      "transactionIndex": "0x0",
      "blockHash": "0x96695d6046c1d3990e6fac3ba140a659e39d4b972635a60cc20802fe43967a02",
      "blockNumber": "0xeacf481",
      "gasUsed": "0x67ead",
      "effectiveGasPrice": "0x13134d1",
      "blobGasUsed": "0x0",
      "from": "0xb2f129b0d6558f39702fb44fa9050e889bdd3aad",
      "to": null,
      "contractAddress": "0xcca909ec1debe995068b125528e4de598373ee11"
    },
    {
      "status": "0x1",
      "cumulativeGasUsed": "0x5444",
      "logs": [],
      "logsBloom": "0x00000000000000000000000000000000000000000000000000000000000000000000000000000000000000000000000000000000000000000000000000000000000000000000000000000000000000000000000000000000000000000000000000000000000000000000000000000000000000000000000000000000000000000000000000000000000000000000000000000000000000000000000000000000000000000000000000000000000000000000000000000000000000000000000000000000000000000000000000000000000000000000000000000000000000000000000000000000000000000000000000000000000000000000000000000000",
      "type": "0x2",
      "transactionHash": "0xa3c1389042b65def3a6ba737a2b93246ad0725df399e0ac471d00394a8a2227b",
      "transactionIndex": "0x0",
      "blockHash": "0x2d5b140963b934814f70533960011a14a3e2f8afcd2d7152ca550ab6361d87e3",
      "blockNumber": "0xeacf483",
      "gasUsed": "0x5444",
      "effectiveGasPrice": "0x13134d1",
      "blobGasUsed": "0x0",
      "from": "0xb2f129b0d6558f39702fb44fa9050e889bdd3aad",
      "to": "0x7ad7d4795cc11457e250cd13198c9998f8cffb0c",
      "contractAddress": null
    },
    {
      "status": "0x1",
      "cumulativeGasUsed": "0xc03e6",
      "logs": [
        {
          "address": "0x7ad7d4795cc11457e250cd13198c9998f8cffb0c",
          "topics": [
            "0x8be0079c531659141344cd1fd0a4f28419497f9722a3daafe3b4186f6b6457e0",
            "0x0000000000000000000000000000000000000000000000000000000000000000",
            "0x000000000000000000000000b2f129b0d6558f39702fb44fa9050e889bdd3aad"
          ],
          "data": "0x",
          "blockHash": "0xdbf8360e582c187cce9e4173258ad40f05486dedf126a5af5f6d5b8806aa110b",
          "blockNumber": "0xeacf484",
          "transactionHash": "0x53efa68deaabc6a6b419cfb26fc5041eda91ca04428d630cd7bea9cff8f07287",
          "transactionIndex": "0x0",
          "logIndex": "0x0",
          "removed": false
        }
      ],
      "logsBloom": "0x00000000000000000000000000000000000000000000000000800000000000000000000000000000000000000000000000000000000000000000000000000001000000000000000000000000000000000001000000000000000000000000000000000000020000000000000000000800000000000000040000000000000000400000000000000000000000000000000000000000000000000000000000000000000000000000000000000000000000000000000000000000002000000000000020000000000000000000000000000000008000000000000000000000000020000000000000000000000000000000000000000000000000004000000000000000",
      "type": "0x2",
      "transactionHash": "0x53efa68deaabc6a6b419cfb26fc5041eda91ca04428d630cd7bea9cff8f07287",
      "transactionIndex": "0x0",
      "blockHash": "0xdbf8360e582c187cce9e4173258ad40f05486dedf126a5af5f6d5b8806aa110b",
      "blockNumber": "0xeacf484",
      "gasUsed": "0xc03e6",
      "effectiveGasPrice": "0x13134d1",
      "blobGasUsed": "0x0",
      "from": "0xb2f129b0d6558f39702fb44fa9050e889bdd3aad",
      "to": null,
      "contractAddress": "0x7ad7d4795cc11457e250cd13198c9998f8cffb0c"
    },
    {
      "status": "0x1",
      "cumulativeGasUsed": "0x95a47",
      "logs": [
        {
          "address": "0x336d1418c588d4d27729983828544d3aa7325063",
          "topics": [
            "0xddf252ad1be2c89b69c2b068fc378daa952ba7f163c4a11628f55a4df523b3ef",
            "0x0000000000000000000000000000000000000000000000000000000000000000",
            "0x000000000000000000000000b2f129b0d6558f39702fb44fa9050e889bdd3aad"
          ],
          "data": "0x00000000000000000000000000000000000000000000d3c21bcecceda1000000",
          "blockHash": "0xa0a5de28e28a3c07530618102a6abff0a53db3f7be8d1e793c79f0308eca0f5f",
          "blockNumber": "0xeacf485",
          "transactionHash": "0x214220fd5ab37cca105ae21a7ff65b3d75a065111e983380a8085c1488e44898",
          "transactionIndex": "0x0",
          "logIndex": "0x0",
          "removed": false
        }
      ],
      "logsBloom": "0x00000000000000000000000000080000000000000000000000000000000000000000000000000000000000000000000000000000000000000000000000000000000000000000000000000008000000000000000000000000000000000000000000000000020000000000000000000800000000000000040000000010000000000000000000000000000000000000000000000000000000000000000000000000000000000000000000000000000200000000000000000000002000000000000020000002000000000000000400000000000000000000000000000000000020000000000000000000000000000000000000000000000000000000000000000000",
      "type": "0x2",
      "transactionHash": "0x214220fd5ab37cca105ae21a7ff65b3d75a065111e983380a8085c1488e44898",
      "transactionIndex": "0x0",
      "blockHash": "0xa0a5de28e28a3c07530618102a6abff0a53db3f7be8d1e793c79f0308eca0f5f",
      "blockNumber": "0xeacf485",
      "gasUsed": "0x95a47",
      "effectiveGasPrice": "0x13134d1",
      "blobGasUsed": "0x0",
      "from": "0xb2f129b0d6558f39702fb44fa9050e889bdd3aad",
      "to": null,
      "contractAddress": "0x336d1418c588d4d27729983828544d3aa7325063"
    },
    {
      "status": "0x1",
      "cumulativeGasUsed": "0x5444",
      "logs": [],
      "logsBloom": "0x00000000000000000000000000000000000000000000000000000000000000000000000000000000000000000000000000000000000000000000000000000000000000000000000000000000000000000000000000000000000000000000000000000000000000000000000000000000000000000000000000000000000000000000000000000000000000000000000000000000000000000000000000000000000000000000000000000000000000000000000000000000000000000000000000000000000000000000000000000000000000000000000000000000000000000000000000000000000000000000000000000000000000000000000000000000",
      "type": "0x2",
      "transactionHash": "0xa4a1ebd112294d7dd04d1d46169caab2a39dbc393291f8425da3aefd3fd6b849",
      "transactionIndex": "0x0",
      "blockHash": "0x7d76f501243de7077b9fbcb2ca71bf10c89ff7ff12694eec9b63a30727c299db",
      "blockNumber": "0xeacf486",
      "gasUsed": "0x5444",
      "effectiveGasPrice": "0x13134d1",
      "blobGasUsed": "0x0",
      "from": "0xb2f129b0d6558f39702fb44fa9050e889bdd3aad",
      "to": "0xcca909ec1debe995068b125528e4de598373ee11",
      "contractAddress": null
    },
    {
      "status": "0x1",
      "cumulativeGasUsed": "0x2c907",
      "logs": [
        {
          "address": "0x7ad7d4795cc11457e250cd13198c9998f8cffb0c",
          "topics": [
            "0x2087cb83bf90b2a760abd73c3a295d6e3f81be815ac1096e245f2f0c161482be",
            "0x0000000000000000000000000000000000000000000000000000000000000000",
            "0x000000000000000000000000f30778d9dacd19f567adb1371da747d6c26c293a",
            "0x000000000000000000000000b2f129b0d6558f39702fb44fa9050e889bdd3aad"
          ],
          "data": "0x0000000000000000000000000000000000000000000000000000000069cc245e",
          "blockHash": "0x81bf167181de32d1f53ed1dbbe83840fd8c8a4cac2dddc87569e79ec72e19db7",
          "blockNumber": "0xeacf487",
          "transactionHash": "0x09f5e3a844b040d34010c8038b375a4480ec1e748b26722a519def98e6019fb4",
          "transactionIndex": "0x0",
          "logIndex": "0x0",
          "removed": false
        }
      ],
      "logsBloom": "0x00000000000000000000000000000000000000000000000000000000000000000000000000000000000000000000000000000000000000000000010000000001000000400000000000000000000000000000000000000000000000000000000000000000020000000000000000000800000000000000040200000000000000000000000000000000000000000000000000000000000000000001000000000000000000000000000000000000000000000000000400000000002000000000000028000000000000000000000000000000008000000000000000000000000020000000000000000000000000000000000000000000000000004000000000000000",
      "type": "0x2",
      "transactionHash": "0x09f5e3a844b040d34010c8038b375a4480ec1e748b26722a519def98e6019fb4",
      "transactionIndex": "0x0",
      "blockHash": "0x81bf167181de32d1f53ed1dbbe83840fd8c8a4cac2dddc87569e79ec72e19db7",
      "blockNumber": "0xeacf487",
      "gasUsed": "0x2c907",
      "effectiveGasPrice": "0x13134d1",
      "blobGasUsed": "0x0",
      "from": "0xb2f129b0d6558f39702fb44fa9050e889bdd3aad",
      "to": "0x7ad7d4795cc11457e250cd13198c9998f8cffb0c",
      "contractAddress": null
    }
  ],
  "libraries": [],
  "pending": [],
  "returns": {},
  "timestamp": 1772394672689,
  "chain": 999421614,
  "commit": null
}